:100000000C942B000C9453000C9453000C9453004C
:100010000C9453000C9453000C9453000C94530014
:100020000C9453000C9453000C9453000C94530004
:100030000C9453000C9453000C9453000C945300F4
:100040000C9453000C9453000C9453000C945300E4
:100050000C945300E20011241FBECFE5D8E0DEBFB0
:10006000CDBF10E0A0E6B0E0E4EEF1E002C0059004
:100070000D92A037B107D9F720E0A0E7B0E001C0AA
:100080001D92A437B207E1F710E0CBE2D0E004C044
:100090002197FE010E94EA00CA32D107C9F70E94E7
:1000A000A1000C94F0000C940000FC0187E0808318
:1000B00080E390E09283818381E390E09483838363
:1000C0008F980895FC01A181B2818C9190E02081EC
:1000D00002C0959587952A95E2F780FD12C083EDC1
:1000E00090E30197F1F700C00000A181B2818C91EB
:1000F00090E0208102C0959587952A95E2F781705E
:10010000089581E00895672B19F082E790E0089543
:1001100080E790E00895C79A0895C798089524E667
:1001200030E0FC0131832083BF9A0895AE9A089590
:10013000AE9808952CE630E0FC0131832083A69A26
:10014000089500D000D000D0CDB7DEB7CE01019623
:100150006C010E94550061E070E0CE0106960E949D
:1001600083007C0160E070E0CE0106960E9483006F
:100170008C01C6010E946200D701ED91FC918111B2
:1001800013C00190F081E02DC7010995D801ED91D0
:10019000FC910190F081E02DC8010995C6010E94F3
:1001A00062008111E6CFFACF0280F381E02DC70112
:1001B0000995D801ED91FC910280F381E02DC801F1
:1001C0000995D7CF82E790E00E948F0080E790E00A
:1001D0000C949A00EE0FFF1F0590F491E02D099406
:0401E000F894FFCFC1
:1001E400000000008B008D000000000096009800C5
:00000001FF
