:100000000C942A000C9447000C9447000C94470071
:100010000C9447000C9447000C9447000C94470044
:100020000C9447000C9447000C9447000C94470034
:100030000C9447000C9447000C9447000C94470024
:100040000C9447000C9447000C9447000C94470014
:100050000C94470011241FBECFE5D8E0DEBFCDBF12
:1000600020E0A6E6B0E001C01D92AC36B207E1F791
:1000700010E0A0E6B0E0E2EBF4E002C005900D92E3
:10008000A636B107D9F70E94D8000C9457020C94F9
:100090000000FC0187E0808380E390E0928381830D
:1000A00081E390E0948383838F980895FC01A1817C
:1000B000B2818C9190E0208102C0959587952A9518
:1000C000E2F780FD12C083ED90E30197F1F700C0E5
:1000D0000000A181B2818C9190E0208102C09595B1
:1000E00087952A95E2F78170089581E00895BF9A77
:1000F000D49AD59AD69A0895CB016230710559F0F9
:1001000020F4892B31F4C79A08956330710529F0E2
:100110000895DC9A0895DD9A0895DE9A0895CB013A
:100120006230710559F020F4892B31F4C798089595
:100130006330710529F00895DC980895DD980895DD
:10014000DE9808950895CF93DF93C0916600D09113
:100150006700209749F482E090E00E942C01EC01B6
:100160009093670080936600CE01DF91CF91089550
:10017000FC01808191818530910514F080E090E050
:100180000196918380830895FC018081918100977D
:1001900011F481E090E0918380830895FC018081D7
:1001A0009181089580916600909167000C94C6013A
:1001B000CDB7DEB72D970FB6F894DEBF0FBECDBF1B
:1001C0007E0129E0E20EF11CC7010E944900CE0128
:1001D00001965C010E9477000E94A300D82EC92ED0
:1001E0009E2C8F2CFA2CEB2C892D982D0E945600DA
:1001F0008111FACF8D2D9C2D0E94B8008D2D9C2D44
:100200000E94CE008330910521F1BCF4813091052C
:10021000E9F061E070E00297A1F0892D982D0E942D
:1002200056008115D1F39FE926E881E091502040E6
:100230008040E1F700C00000D7CF63E070E0049792
:1002400061F78F2D9E2D0E947C00E7CF60E070E06B
:10025000F8CF62E070E0F5CF0F931F93CF93DF9359
:100260008230910510F482E090E0E0916A00F09114
:100270006B0030E020E0B0E0A0E0309799F4211569
:10028000310509F447C0281B390B24303105C0F56E
:100290008A819B816115710571F1FB0193838283D2
:1002A000FE0111C040815181028113814817590715
:1002B000F8F04817590799F4109761F012960C93CB
:1002C000129713961C933296CF01DF91CF911F9115
:1002D0000F91089500936A0010936B00F4CF2115DD
:1002E000310519F04217530718F49A01BD01EF01C7
:1002F000DF01F801C2CF90936B0080936A00D0CFEA
:10030000FE01E20FF31F819391932250310939834B
:100310002883DACF2091680030916900232B41F4C3
:10032000209162003091630030936900209368004F
:1003300020916000309161002115310541F42DB705
:100340003EB74091640050916500241B350B4091ED
:100350006800509169004217530708F0B5CF241B7D
:10036000350B2817390708F4AFCFBC016E5F7F4FFC
:100370002617370708F4A8CF640F751F709369001C
:1003800060936800FA01819391939ECFCF93DF939E
:100390000097E9F0FC01329713821282C0916A0043
:1003A000D0916B00DE0130E020E02097A1F42081A5
:1003B0003181820F931F20916800309169002817C6
:1003C000390709F067C0F0936900E0936800DF9196
:1003D000CF910895DA01AE17BF0708F040C012961A
:1003E0004D915C9113979D014115510599F7D901E4
:1003F0001396FC93EE9312974D915D91A40FB51F48
:10040000EA17FB0779F4808191810296840F951F8A
:10041000D90111969C938E938281938113969C931C
:100420008E931297B0E0A0E08A819B810097B9F586
:10043000FE0181919191E80FF91F809168009091E0
:1004400069008E179F0719F6109761F510926B00DF
:1004500010926A00D0936900C0936800B8CFB3834C
:10046000A28340815181840F951FA817B90771F4A9
:100470004E5F5F4F8D919C911197480F591F51838B
:10048000408312968D919C9193838283211531052F
:1004900009F0ADCFF0936B00E0936A0098CFDE01D6
:1004A000EC01C2CF13961C921E921297D3CFF894F0
:0204B000FFCF7C
:0604B20000006C002000B8
:00000001FF
