:100000000C942A000C9447000C9447000C94470071
:100010000C9447000C9447000C9447000C94470044
:100020000C9447000C9447000C9447000C94470034
:100030000C9447000C9449000C9447000C94470022
:100040000C9447000C9447000C9447000C94470014
:100050000C94470011241FBECFE5D8E0DEBFCDBF12
:1000600010E0A0E6B0E0E0E0F2E002C005900D9202
:10007000A837B107D9F720E0A8E7B0E001C01D928A
:10008000AD3DB207E1F70E94D5000C94FE000C9440
:1000900000008F938FB78F939F93EF93FF939CB143
:1000A00080917800E82FF0E0E758FF4F90838F5F52
:1000B00080937800FF91EF919F918F918FBF8F91E7
:1000C000189529E730E0FC01318320838AB18861EB
:1000D0008AB980B5866880BD87E689B910BC579A11
:1000E00008955D9BFECF6CB90895EF92FF921F9328
:1000F000CF93DF93D82F192F7B01C0E0F701EC0FCE
:10010000F11D6081611106C0DF91CF911F91FF90B9
:10011000EF9008958D2F912F0E947100CF5FEECF49
:10012000FC012FEF83ED90E3215080409040E1F7F8
:1001300000C000008081918108950895CF93DF93DE
:10014000EC01CB010E9490009B838A83E881F981B6
:100150000280F381E02DCE0109958A819B81DF9198
:10016000CF910895DC011296ED91FC911397808157
:1001700081110FC00895903209F420838F5F129689
:10018000ED91FC911397E80FF11D90819111F3CF40
:10019000089580E02CE2F3CFFC0184E790E09183A6
:1001A0008083138212820895089500D000D000D079
:1001B000CDB7DEB78E010B5F1F4FC8010E946100F3
:1001C000CE0101966C010E94CC0060E670E0C8018F
:1001D0000E9475007894B801C6010E949E007C01BF
:1001E000FC0180818115B9F366E670E0C8010E94C8
:1001F0007500B701C8010E947500FFCFF894FFCFCA
:1002000068656C6C6F007265636965766564200073
:08021000000000009E00B20096
:00000001FF
