:100000000C942A000C9447000C9447000C94470071
:100010000C9447000C9447000C9447000C94470044
:100020000C9447000C9447000C9447000C94470034
:100030000C9447000C9449000C9447000C94470022
:100040000C9447000C9447000C9447000C94470014
:100050000C94470011241FBECFE5D8E0DEBFCDBF12
:1000600010E0A0E6B0E0E4EBF1E002C005900D92F4
:10007000A237B107D9F720E0A2E7B0E001C01D9296
:10008000A73DB207E1F70E94BF000C94D8000C9482
:1000900000008F938FB78F939F93EF93FF939CB143
:1000A00080917200E82FF0E0ED58FF4F90838F5F52
:1000B00080937200FF91EF919F918F918FBF8F91ED
:1000C000189523E730E0FC01318320838AB18861F1
:1000D0008AB980B5866880BD87E689B910BC579A11
:1000E00008955D9BFECF6CB90895EF92FF921F9328
:1000F000CF93DF93D82F192F7B01C0E0F701EC0FCE
:10010000F11D6081611106C0DF91CF911F91FF90B9
:10011000EF9008958D2F912F0E947100CF5FEECF49
:10012000FC012FEF83ED90E3215080409040E1F7F8
:1001300000C000008081918108950895CF93DF93DE
:10014000CB01D42FC52F0E949000FC016081611566
:1001500059F0062E000C770B605371098D2F9C2FE0
:10016000DF91CF910C94B700DF91CF9108958FEF7D
:1001700087BBFB01E05AFF4F808188BB089500D008
:1001800000D0CDB7DEB78E010F5F1F4FC8010E94B0
:1001900061006AE670E0C8010E9475007894AE01C3
:1001A0004C5F5F4FB801CE0103960E949E00F7CFCF
:0401B000F894FFCFF1
:1001B4003F065B4F666D7D077F6F68656C6C6F0DE6
:0201C4000A002F
:00000001FF
